{
  "contractName": "Adddoc",
  "abi": [
    {
      "constant": false,
      "inputs": [
        {
          "internalType": "string",
          "name": "_memeHash",
          "type": "string"
        }
      ],
      "name": "set",
      "outputs": [],
      "payable": false,
      "stateMutability": "nonpayable",
      "type": "function"
    },
    {
      "constant": true,
      "inputs": [],
      "name": "get",
      "outputs": [
        {
          "internalType": "string",
          "name": "",
          "type": "string"
        }
      ],
      "payable": false,
      "stateMutability": "view",
      "type": "function"
    },
    {
      "constant": false,
      "inputs": [
        {
          "internalType": "address",
          "name": "UserAddress",
          "type": "address"
        },
        {
          "internalType": "string",
          "name": "_docname",
          "type": "string"
        },
        {
          "internalType": "string",
          "name": "_date",
          "type": "string"
        },
        {
          "internalType": "string",
          "name": "_dochash",
          "type": "string"
        }
      ],
      "name": "setstudoc",
      "outputs": [],
      "payable": false,
      "stateMutability": "nonpayable",
      "type": "function"
    },
    {
      "constant": true,
      "inputs": [
        {
          "internalType": "address",
          "name": "UserAddress",
          "type": "address"
        },
        {
          "internalType": "uint256",
          "name": "UserIndex",
          "type": "uint256"
        }
      ],
      "name": "getstudoc",
      "outputs": [
        {
          "internalType": "string",
          "name": "",
          "type": "string"
        },
        {
          "internalType": "string",
          "name": "",
          "type": "string"
        },
        {
          "internalType": "string",
          "name": "",
          "type": "string"
        }
      ],
      "payable": false,
      "stateMutability": "view",
      "type": "function"
    },
    {
      "constant": false,
      "inputs": [
        {
          "internalType": "address",
          "name": "UserAddress",
          "type": "address"
        },
        {
          "internalType": "string",
          "name": "FullName",
          "type": "string"
        },
        {
          "internalType": "string",
          "name": "EmailID",
          "type": "string"
        },
        {
          "internalType": "string",
          "name": "MobileNo",
          "type": "string"
        }
      ],
      "name": "AddUser",
      "outputs": [],
      "payable": false,
      "stateMutability": "nonpayable",
      "type": "function"
    },
    {
      "constant": true,
      "inputs": [
        {
          "internalType": "address",
          "name": "ins",
          "type": "address"
        },
        {
          "internalType": "uint256",
          "name": "UserIndex",
          "type": "uint256"
        }
      ],
      "name": "getUser",
      "outputs": [
        {
          "internalType": "string",
          "name": "",
          "type": "string"
        },
        {
          "internalType": "string",
          "name": "",
          "type": "string"
        },
        {
          "internalType": "string",
          "name": "",
          "type": "string"
        }
      ],
      "payable": false,
      "stateMutability": "view",
      "type": "function"
    },
    {
      "constant": false,
      "inputs": [
        {
          "internalType": "address",
          "name": "UserAddress",
          "type": "address"
        },
        {
          "internalType": "string",
          "name": "_bonafide",
          "type": "string"
        }
      ],
      "name": "AddBonafidecertificate",
      "outputs": [],
      "payable": false,
      "stateMutability": "nonpayable",
      "type": "function"
    },
    {
      "constant": false,
      "inputs": [
        {
          "internalType": "address",
          "name": "UserAddress",
          "type": "address"
        },
        {
          "internalType": "string",
          "name": "_scholor",
          "type": "string"
        }
      ],
      "name": "AddScholorcertificate",
      "outputs": [],
      "payable": false,
      "stateMutability": "nonpayable",
      "type": "function"
    },
    {
      "constant": false,
      "inputs": [
        {
          "internalType": "address",
          "name": "UserAddress",
          "type": "address"
        },
        {
          "internalType": "string",
          "name": "_academics",
          "type": "string"
        }
      ],
      "name": "AddAcademicscertificate",
      "outputs": [],
      "payable": false,
      "stateMutability": "nonpayable",
      "type": "function"
    },
    {
      "constant": true,
      "inputs": [
        {
          "internalType": "address",
          "name": "UserAddress",
          "type": "address"
        },
        {
          "internalType": "uint256",
          "name": "RequestIndex",
          "type": "uint256"
        }
      ],
      "name": "viewDoc",
      "outputs": [
        {
          "internalType": "uint256",
          "name": "",
          "type": "uint256"
        },
        {
          "internalType": "string",
          "name": "",
          "type": "string"
        },
        {
          "internalType": "uint256",
          "name": "",
          "type": "uint256"
        },
        {
          "internalType": "string",
          "name": "",
          "type": "string"
        },
        {
          "internalType": "uint256",
          "name": "",
          "type": "uint256"
        },
        {
          "internalType": "string",
          "name": "",
          "type": "string"
        }
      ],
      "payable": false,
      "stateMutability": "view",
      "type": "function"
    },
    {
      "constant": true,
      "inputs": [
        {
          "internalType": "address",
          "name": "UserAddress",
          "type": "address"
        }
      ],
      "name": "viewDocLength",
      "outputs": [
        {
          "internalType": "uint256",
          "name": "",
          "type": "uint256"
        }
      ],
      "payable": false,
      "stateMutability": "view",
      "type": "function"
    },
    {
      "constant": false,
      "inputs": [
        {
          "internalType": "address",
          "name": "UserAddress",
          "type": "address"
        },
        {
          "internalType": "string",
          "name": "stuname",
          "type": "string"
        },
        {
          "internalType": "uint256",
          "name": "bonafide",
          "type": "uint256"
        },
        {
          "internalType": "uint256",
          "name": "scholor",
          "type": "uint256"
        },
        {
          "internalType": "uint256",
          "name": "academics",
          "type": "uint256"
        },
        {
          "internalType": "uint256",
          "name": "status",
          "type": "uint256"
        }
      ],
      "name": "AddRequest",
      "outputs": [],
      "payable": false,
      "stateMutability": "nonpayable",
      "type": "function"
    },
    {
      "constant": true,
      "inputs": [
        {
          "internalType": "address",
          "name": "UserAddress",
          "type": "address"
        }
      ],
      "name": "ViewRequestLength",
      "outputs": [
        {
          "internalType": "uint256",
          "name": "",
          "type": "uint256"
        }
      ],
      "payable": false,
      "stateMutability": "view",
      "type": "function"
    },
    {
      "constant": true,
      "inputs": [
        {
          "internalType": "address",
          "name": "UserAddress",
          "type": "address"
        },
        {
          "internalType": "uint256",
          "name": "RequestIndex",
          "type": "uint256"
        }
      ],
      "name": "ViewRequestHeader",
      "outputs": [
        {
          "internalType": "string",
          "name": "stuname",
          "type": "string"
        },
        {
          "internalType": "uint256",
          "name": "status",
          "type": "uint256"
        }
      ],
      "payable": false,
      "stateMutability": "view",
      "type": "function"
    },
    {
      "constant": true,
      "inputs": [
        {
          "internalType": "address",
          "name": "UserAddress",
          "type": "address"
        },
        {
          "internalType": "uint256",
          "name": "RequestIndex",
          "type": "uint256"
        }
      ],
      "name": "ViewRequestDetail",
      "outputs": [
        {
          "internalType": "string",
          "name": "stuname",
          "type": "string"
        },
        {
          "internalType": "uint256",
          "name": "bonafide",
          "type": "uint256"
        },
        {
          "internalType": "uint256",
          "name": "scholor",
          "type": "uint256"
        },
        {
          "internalType": "uint256",
          "name": "academics",
          "type": "uint256"
        },
        {
          "internalType": "uint256",
          "name": "status",
          "type": "uint256"
        }
      ],
      "payable": false,
      "stateMutability": "view",
      "type": "function"
    },
    {
      "constant": false,
      "inputs": [
        {
          "internalType": "address",
          "name": "UserAddress",
          "type": "address"
        },
        {
          "internalType": "uint256",
          "name": "RequestIndex",
          "type": "uint256"
        },
        {
          "internalType": "uint256",
          "name": "bonafide",
          "type": "uint256"
        },
        {
          "internalType": "uint256",
          "name": "scholor",
          "type": "uint256"
        },
        {
          "internalType": "uint256",
          "name": "academics",
          "type": "uint256"
        },
        {
          "internalType": "uint256",
          "name": "status",
          "type": "uint256"
        }
      ],
      "name": "UpdateRequestStatus",
      "outputs": [],
      "payable": false,
      "stateMutability": "nonpayable",
      "type": "function"
    }
  ],
  "bytecode": "0x608060405234801561001057600080fd5b50612770806100206000396000f3fe608060405234801561001057600080fd5b50600436106101005760003560e01c806359313864116100975780637c9869a1116100665780637c9869a114610d2c578063c511bbdf14610e07578063e183d77b14610fbb578063ff2bf64f1461101357610100565b80635931386414610a555780636d4ce63c14610b305780636ed5268614610bb3578063772b89f614610cb657610100565b80634ac32075116100d35780634ac32075146105175780634e94895a146107205780634ed3885e146108bf578063537931fe1461097a57610100565b8063043bf5e21461010557806307c29422146101e857806325df4510146103f157806326ed9734146104bf575b600080fd5b6101516004803603604081101561011b57600080fd5b81019080803573ffffffffffffffffffffffffffffffffffffffff169060200190929190803590602001909291905050506111b2565b6040518080602001868152602001858152602001848152602001838152602001828103825287818151815260200191508051906020019080838360005b838110156101a957808201518184015260208101905061018e565b50505050905090810190601f1680156101d65780820380516001836020036101000a031916815260200191505b50965050505050505060405180910390f35b6103ef600480360360808110156101fe57600080fd5b81019080803573ffffffffffffffffffffffffffffffffffffffff1690602001909291908035906020019064010000000081111561023b57600080fd5b82018360208201111561024d57600080fd5b8035906020019184600183028401116401000000008311171561026f57600080fd5b91908080601f016020809104026020016040519081016040528093929190818152602001838380828437600081840152601f19601f820116905080830192505050505050509192919290803590602001906401000000008111156102d257600080fd5b8201836020820111156102e457600080fd5b8035906020019184600183028401116401000000008311171561030657600080fd5b91908080601f016020809104026020016040519081016040528093929190818152602001838380828437600081840152601f19601f8201169050808301925050505050505091929192908035906020019064010000000081111561036957600080fd5b82018360208201111561037b57600080fd5b8035906020019184600183028401116401000000008311171561039d57600080fd5b91908080601f016020809104026020016040519081016040528093929190818152602001838380828437600081840152601f19601f820116905080830192505050505050509192919290505050611322565b005b61043d6004803603604081101561040757600080fd5b81019080803573ffffffffffffffffffffffffffffffffffffffff16906020019092919080359060200190929190505050611407565b6040518080602001838152602001828103825284818151815260200191508051906020019080838360005b83811015610483578082015181840152602081019050610468565b50505050905090810190601f1680156104b05780820380516001836020036101000a031916815260200191505b50935050505060405180910390f35b610501600480360360208110156104d557600080fd5b81019080803573ffffffffffffffffffffffffffffffffffffffff16906020019092919050505061155b565b6040518082815260200191505060405180910390f35b61071e6004803603608081101561052d57600080fd5b81019080803573ffffffffffffffffffffffffffffffffffffffff1690602001909291908035906020019064010000000081111561056a57600080fd5b82018360208201111561057c57600080fd5b8035906020019184600183028401116401000000008311171561059e57600080fd5b91908080601f016020809104026020016040519081016040528093929190818152602001838380828437600081840152601f19601f8201169050808301925050505050505091929192908035906020019064010000000081111561060157600080fd5b82018360208201111561061357600080fd5b8035906020019184600183028401116401000000008311171561063557600080fd5b91908080601f016020809104026020016040519081016040528093929190818152602001838380828437600081840152601f19601f8201169050808301925050505050505091929192908035906020019064010000000081111561069857600080fd5b8201836020820111156106aa57600080fd5b803590602001918460018302840111640100000000831117156106cc57600080fd5b91908080601f016020809104026020016040519081016040528093929190818152602001838380828437600081840152601f19601f8201169050808301925050505050505091929192905050506115a7565b005b61076c6004803603604081101561073657600080fd5b81019080803573ffffffffffffffffffffffffffffffffffffffff1690602001909291908035906020019092919050505061168c565b60405180806020018060200180602001848103845287818151815260200191508051906020019080838360005b838110156107b4578082015181840152602081019050610799565b50505050905090810190601f1680156107e15780820380516001836020036101000a031916815260200191505b50848103835286818151815260200191508051906020019080838360005b8381101561081a5780820151818401526020810190506107ff565b50505050905090810190601f1680156108475780820380516001836020036101000a031916815260200191505b50848103825285818151815260200191508051906020019080838360005b83811015610880578082015181840152602081019050610865565b50505050905090810190601f1680156108ad5780820380516001836020036101000a031916815260200191505b50965050505050505060405180910390f35b610978600480360360208110156108d557600080fd5b81019080803590602001906401000000008111156108f257600080fd5b82018360208201111561090457600080fd5b8035906020019184600183028401116401000000008311171561092657600080fd5b91908080601f016020809104026020016040519081016040528093929190818152602001838380828437600081840152601f19601f82011690508083019250505050505050919291929050505061190a565b005b610a536004803603604081101561099057600080fd5b81019080803573ffffffffffffffffffffffffffffffffffffffff169060200190929190803590602001906401000000008111156109cd57600080fd5b8201836020820111156109df57600080fd5b80359060200191846001830284011164010000000083111715610a0157600080fd5b91908080601f016020809104026020016040519081016040528093929190818152602001838380828437600081840152601f19601f820116905080830192505050505050509192919290505050611924565b005b610b2e60048036036040811015610a6b57600080fd5b81019080803573ffffffffffffffffffffffffffffffffffffffff16906020019092919080359060200190640100000000811115610aa857600080fd5b820183602082011115610aba57600080fd5b80359060200191846001830284011164010000000083111715610adc57600080fd5b91908080601f016020809104026020016040519081016040528093929190818152602001838380828437600081840152601f19601f8201169050808301925050505050505091929192905050506119bd565b005b610b38611a56565b6040518080602001828103825283818151815260200191508051906020019080838360005b83811015610b78578082015181840152602081019050610b5d565b50505050905090810190601f168015610ba55780820380516001836020036101000a031916815260200191505b509250505060405180910390f35b610cb4600480360360c0811015610bc957600080fd5b81019080803573ffffffffffffffffffffffffffffffffffffffff16906020019092919080359060200190640100000000811115610c0657600080fd5b820183602082011115610c1857600080fd5b80359060200191846001830284011164010000000083111715610c3a57600080fd5b91908080601f016020809104026020016040519081016040528093929190818152602001838380828437600081840152601f19601f82011690508083019250505050505050919291929080359060200190929190803590602001909291908035906020019092919080359060200190929190505050611af8565b005b610d2a600480360360c0811015610ccc57600080fd5b81019080803573ffffffffffffffffffffffffffffffffffffffff1690602001909291908035906020019092919080359060200190929190803590602001909291908035906020019092919080359060200190929190505050611bd9565b005b610e0560048036036040811015610d4257600080fd5b81019080803573ffffffffffffffffffffffffffffffffffffffff16906020019092919080359060200190640100000000811115610d7f57600080fd5b820183602082011115610d9157600080fd5b80359060200191846001830284011164010000000083111715610db357600080fd5b91908080601f016020809104026020016040519081016040528093929190818152602001838380828437600081840152601f19601f820116905080830192505050505050509192919290505050611d61565b005b610e5360048036036040811015610e1d57600080fd5b81019080803573ffffffffffffffffffffffffffffffffffffffff16906020019092919080359060200190929190505050611dfa565b60405180878152602001806020018681526020018060200185815260200180602001848103845289818151815260200191508051906020019080838360005b83811015610ead578082015181840152602081019050610e92565b50505050905090810190601f168015610eda5780820380516001836020036101000a031916815260200191505b50848103835287818151815260200191508051906020019080838360005b83811015610f13578082015181840152602081019050610ef8565b50505050905090810190601f168015610f405780820380516001836020036101000a031916815260200191505b50848103825285818151815260200191508051906020019080838360005b83811015610f79578082015181840152602081019050610f5e565b50505050905090810190601f168015610fa65780820380516001836020036101000a031916815260200191505b50995050505050505050505060405180910390f35b610ffd60048036036020811015610fd157600080fd5b81019080803573ffffffffffffffffffffffffffffffffffffffff1690602001909291905050506122a2565b6040518082815260200191505060405180910390f35b61105f6004803603604081101561102957600080fd5b81019080803573ffffffffffffffffffffffffffffffffffffffff169060200190929190803590602001909291905050506122ee565b60405180806020018060200180602001848103845287818151815260200191508051906020019080838360005b838110156110a757808201518184015260208101905061108c565b50505050905090810190601f1680156110d45780820380516001836020036101000a031916815260200191505b50848103835286818151815260200191508051906020019080838360005b8381101561110d5780820151818401526020810190506110f2565b50505050905090810190601f16801561113a5780820380516001836020036101000a031916815260200191505b50848103825285818151815260200191508051906020019080838360005b83811015611173578082015181840152602081019050611158565b50505050905090810190601f1680156111a05780820380516001836020036101000a031916815260200191505b50965050505050505060405180910390f35b60606000806000806111c261256c565b600360008973ffffffffffffffffffffffffffffffffffffffff1673ffffffffffffffffffffffffffffffffffffffff168152602001908152602001600020878154811061120c57fe5b90600052602060002090600502016040518060a0016040529081600082018054600181600116156101000203166002900480601f0160208091040260200160405190810160405280929190818152602001828054600181600116156101000203166002900480156112be5780601f10611293576101008083540402835291602001916112be565b820191906000526020600020905b8154815290600101906020018083116112a157829003601f168201915b5050505050815260200160018201548152602001600282015481526020016003820154815260200160048201548152505090508060000151816020015182604001518360600151846080015184945095509550955095509550509295509295909350565b600160008573ffffffffffffffffffffffffffffffffffffffff1673ffffffffffffffffffffffffffffffffffffffff1681526020019081526020016000206040518060600160405280858152602001848152602001838152509080600181540180825580915050906001820390600052602060002090600302016000909192909190915060008201518160000190805190602001906113c392919061259b565b5060208201518160010190805190602001906113e092919061259b565b5060408201518160020190805190602001906113fd92919061259b565b5050505050505050565b6060600061141361256c565b600360008673ffffffffffffffffffffffffffffffffffffffff1673ffffffffffffffffffffffffffffffffffffffff168152602001908152602001600020848154811061145d57fe5b90600052602060002090600502016040518060a0016040529081600082018054600181600116156101000203166002900480601f01602080910402602001604051908101604052809291908181526020018280546001816001161561010002031660029004801561150f5780601f106114e45761010080835404028352916020019161150f565b820191906000526020600020905b8154815290600101906020018083116114f257829003601f168201915b5050505050815260200160018201548152602001600282015481526020016003820154815260200160048201548152505090508060000151816080015181915092509250509250929050565b6000600160008373ffffffffffffffffffffffffffffffffffffffff1673ffffffffffffffffffffffffffffffffffffffff168152602001908152602001600020805490509050919050565b600260008573ffffffffffffffffffffffffffffffffffffffff1673ffffffffffffffffffffffffffffffffffffffff16815260200190815260200160002060405180606001604052808581526020018481526020018381525090806001815401808255809150509060018203906000526020600020906003020160009091929091909150600082015181600001908051906020019061164892919061259b565b50602082015181600101908051906020019061166592919061259b565b50604082015181600201908051906020019061168292919061259b565b5050505050505050565b606080606061169961261b565b600160008773ffffffffffffffffffffffffffffffffffffffff1673ffffffffffffffffffffffffffffffffffffffff16815260200190815260200160002085815481106116e357fe5b9060005260206000209060030201604051806060016040529081600082018054600181600116156101000203166002900480601f0160208091040260200160405190810160405280929190818152602001828054600181600116156101000203166002900480156117955780601f1061176a57610100808354040283529160200191611795565b820191906000526020600020905b81548152906001019060200180831161177857829003601f168201915b50505050508152602001600182018054600181600116156101000203166002900480601f0160208091040260200160405190810160405280929190818152602001828054600181600116156101000203166002900480156118375780601f1061180c57610100808354040283529160200191611837565b820191906000526020600020905b81548152906001019060200180831161181a57829003601f168201915b50505050508152602001600282018054600181600116156101000203166002900480601f0160208091040260200160405190810160405280929190818152602001828054600181600116156101000203166002900480156118d95780601f106118ae576101008083540402835291602001916118d9565b820191906000526020600020905b8154815290600101906020018083116118bc57829003601f168201915b5050505050815250509050806000015181602001518260400151829250819150809050935093509350509250925092565b806000908051906020019061192092919061263c565b5050565b600660008373ffffffffffffffffffffffffffffffffffffffff1673ffffffffffffffffffffffffffffffffffffffff16815260200190815260200160002060405180602001604052808381525090806001815401808255809150509060018203906000526020600020016000909192909190915060008201518160000190805190602001906119b592919061259b565b505050505050565b600560008373ffffffffffffffffffffffffffffffffffffffff1673ffffffffffffffffffffffffffffffffffffffff1681526020019081526020016000206040518060200160405280838152509080600181540180825580915050906001820390600052602060002001600090919290919091506000820151816000019080519060200190611a4e92919061259b565b505050505050565b606060008054600181600116156101000203166002900480601f016020809104026020016040519081016040528092919081815260200182805460018160011615610100020316600290048015611aee5780601f10611ac357610100808354040283529160200191611aee565b820191906000526020600020905b815481529060010190602001808311611ad157829003601f168201915b5050505050905090565b600360008773ffffffffffffffffffffffffffffffffffffffff1673ffffffffffffffffffffffffffffffffffffffff1681526020019081526020016000206040518060a0016040528087815260200186815260200185815260200184815260200183815250908060018154018082558091505090600182039060005260206000209060050201600090919290919091506000820151816000019080519060200190611ba592919061259b565b5060208201518160010155604082015181600201556060820151816003015560808201518160040155505050505050505050565b83600360008873ffffffffffffffffffffffffffffffffffffffff1673ffffffffffffffffffffffffffffffffffffffff1681526020019081526020016000208681548110611c2457fe5b90600052602060002090600502016001018190555082600360008873ffffffffffffffffffffffffffffffffffffffff1673ffffffffffffffffffffffffffffffffffffffff1681526020019081526020016000208681548110611c8457fe5b90600052602060002090600502016002018190555081600360008873ffffffffffffffffffffffffffffffffffffffff1673ffffffffffffffffffffffffffffffffffffffff1681526020019081526020016000208681548110611ce457fe5b90600052602060002090600502016003018190555080600360008873ffffffffffffffffffffffffffffffffffffffff1673ffffffffffffffffffffffffffffffffffffffff1681526020019081526020016000208681548110611d4457fe5b906000526020600020906005020160040181905550505050505050565b600460008373ffffffffffffffffffffffffffffffffffffffff1673ffffffffffffffffffffffffffffffffffffffff1681526020019081526020016000206040518060200160405280838152509080600181540180825580915050906001820390600052602060002001600090919290919091506000820151816000019080519060200190611df292919061259b565b505050505050565b600060606000606060006060611e0e6126bc565b600460008a73ffffffffffffffffffffffffffffffffffffffff1673ffffffffffffffffffffffffffffffffffffffff168152602001908152602001600020600081548110611e5957fe5b90600052602060002001604051806020016040529081600082018054600181600116156101000203166002900480601f016020809104026020016040519081016040528092919081815260200182805460018160011615610100020316600290048015611f075780601f10611edc57610100808354040283529160200191611f07565b820191906000526020600020905b815481529060010190602001808311611eea57829003601f168201915b5050505050815250509050611f1a6126cf565b600560008b73ffffffffffffffffffffffffffffffffffffffff1673ffffffffffffffffffffffffffffffffffffffff168152602001908152602001600020600081548110611f6557fe5b90600052602060002001604051806020016040529081600082018054600181600116156101000203166002900480601f0160208091040260200160405190810160405280929190818152602001828054600181600116156101000203166002900480156120135780601f10611fe857610100808354040283529160200191612013565b820191906000526020600020905b815481529060010190602001808311611ff657829003601f168201915b50505050508152505090506120266126e2565b600660008c73ffffffffffffffffffffffffffffffffffffffff1673ffffffffffffffffffffffffffffffffffffffff16815260200190815260200160002060008154811061207157fe5b90600052602060002001604051806020016040529081600082018054600181600116156101000203166002900480601f01602080910402602001604051908101604052809291908181526020018280546001816001161561010002031660029004801561211f5780601f106120f45761010080835404028352916020019161211f565b820191906000526020600020905b81548152906001019060200180831161210257829003601f168201915b505050505081525050905061213261256c565b600360008d73ffffffffffffffffffffffffffffffffffffffff1673ffffffffffffffffffffffffffffffffffffffff1681526020019081526020016000208b8154811061217c57fe5b90600052602060002090600502016040518060a0016040529081600082018054600181600116156101000203166002900480601f01602080910402602001604051908101604052809291908181526020018280546001816001161561010002031660029004801561222e5780601f106122035761010080835404028352916020019161222e565b820191906000526020600020905b81548152906001019060200180831161221157829003601f168201915b505050505081526020016001820154815260200160028201548152602001600382015481526020016004820154815250509050806020015184600001518260400151856000015184606001518660000151849450829250809050995099509950995099509950505050509295509295509295565b6000600360008373ffffffffffffffffffffffffffffffffffffffff1673ffffffffffffffffffffffffffffffffffffffff168152602001908152602001600020805490509050919050565b60608060606122fb6126f5565b600260008773ffffffffffffffffffffffffffffffffffffffff1673ffffffffffffffffffffffffffffffffffffffff168152602001908152602001600020858154811061234557fe5b9060005260206000209060030201604051806060016040529081600082018054600181600116156101000203166002900480601f0160208091040260200160405190810160405280929190818152602001828054600181600116156101000203166002900480156123f75780601f106123cc576101008083540402835291602001916123f7565b820191906000526020600020905b8154815290600101906020018083116123da57829003601f168201915b50505050508152602001600182018054600181600116156101000203166002900480601f0160208091040260200160405190810160405280929190818152602001828054600181600116156101000203166002900480156124995780601f1061246e57610100808354040283529160200191612499565b820191906000526020600020905b81548152906001019060200180831161247c57829003601f168201915b50505050508152602001600282018054600181600116156101000203166002900480601f01602080910402602001604051908101604052809291908181526020018280546001816001161561010002031660029004801561253b5780601f106125105761010080835404028352916020019161253b565b820191906000526020600020905b81548152906001019060200180831161251e57829003601f168201915b5050505050815250509050806000015181602001518260400151829250819150809050935093509350509250925092565b6040518060a0016040528060608152602001600081526020016000815260200160008152602001600081525090565b828054600181600116156101000203166002900490600052602060002090601f016020900481019282601f106125dc57805160ff191683800117855561260a565b8280016001018555821561260a579182015b828111156126095782518255916020019190600101906125ee565b5b5090506126179190612716565b5090565b60405180606001604052806060815260200160608152602001606081525090565b828054600181600116156101000203166002900490600052602060002090601f016020900481019282601f1061267d57805160ff19168380011785556126ab565b828001600101855582156126ab579182015b828111156126aa57825182559160200191906001019061268f565b5b5090506126b89190612716565b5090565b6040518060200160405280606081525090565b6040518060200160405280606081525090565b6040518060200160405280606081525090565b60405180606001604052806060815260200160608152602001606081525090565b61273891905b8082111561273457600081600090555060010161271c565b5090565b9056fea265627a7a723158204b73d03f7fe1531d7e8128eac2049bc42f47c373e28846da1c486e6b80cc0e6264736f6c63430005100032",
  "source": "pragma solidity >=0.4.22 <0.8.0;\n\n\ncontract Adddoc {\n\n    string bonafidehai;\n\n    struct Studoc{\n        string docname;\n        string date;\n        string dochash;\n    }\n\n     struct UserInfo{\n        string FullName;\n        string EmailID;\n        string MobileNo;\n    }\n\n    struct Request{\n        string stuname;\n        uint bonafide;\n        uint scholor;\n        uint academics;\n        uint status;\n    }\n\n   \n    struct Bonafidekastruct{\n        string bonafidekistring;\n    }\n\n    struct Scholorkastruct{\n        string scholorkistring;\n    }\n    struct Academicskastruct{\n        string academicskistring;\n    }\n\n    mapping(address => Studoc[]) Stumap;\n    mapping(address => UserInfo[]) UserMap;\n    mapping(address => Request[]) RequestMap;\n\n    mapping(address => Bonafidekastruct[]) Bonamap;\n    mapping(address => Scholorkastruct[]) Scholmap;\n    mapping(address => Academicskastruct[]) Acamap;\n\n    function set(string memory _memeHash) public {\n        bonafidehai = _memeHash;\n    }\n\n    function get() public view returns (string memory) {\n        return bonafidehai;\n    }\n\n    function setstudoc(address UserAddress,string memory _docname,string memory _date,string memory _dochash) public {\n        Stumap[UserAddress].push(Studoc(_docname,_date,_dochash));\n    }\n\n    function getstudoc(address UserAddress,uint UserIndex) view public returns(string memory,string memory,string memory) {\n        Studoc memory ThisUser=Stumap[UserAddress][UserIndex];\n        return(ThisUser.docname,ThisUser.date,ThisUser.dochash);\n\n    }\n\n\n    function AddUser(address UserAddress,string memory FullName,string memory EmailID,string memory MobileNo) public\n    {\n        UserMap[UserAddress].push(UserInfo(FullName,EmailID,MobileNo));\n    }\n\n    \n    function getUser(address ins,uint UserIndex) view public returns (string memory, string memory, string memory) {\n        UserInfo memory ThisUser=UserMap[ins][UserIndex];\n        return (ThisUser.FullName, ThisUser.EmailID, ThisUser.MobileNo);\n    }\n\n\n\n\n\n    function AddBonafidecertificate(address UserAddress,string memory _bonafide) public \n    {\n        Bonamap[UserAddress].push(Bonafidekastruct(_bonafide));\n    }\n\n     function AddScholorcertificate(address UserAddress,string memory _scholor) public \n    {\n        Scholmap[UserAddress].push(Scholorkastruct(_scholor));\n    }\n\n     function AddAcademicscertificate(address UserAddress,string memory _academics) public \n    {\n        Acamap[UserAddress].push(Academicskastruct(_academics));\n    }\n    \n    function viewDoc(address UserAddress,uint RequestIndex) public view returns(uint,string memory,uint,string memory,uint,string memory)\n    {\n        Bonafidekastruct memory ThisBona=Bonamap[UserAddress][0];\n        Scholorkastruct memory ThisSchol=Scholmap[UserAddress][0];\n        Academicskastruct memory ThisAca=Acamap[UserAddress][0];\n        Request memory ThisRequest=RequestMap[UserAddress][RequestIndex];\n        return (ThisRequest.bonafide,ThisBona.bonafidekistring,ThisRequest.scholor,ThisSchol.scholorkistring,ThisRequest.academics,ThisAca.academicskistring);\n    }\n\n    function viewDocLength(address UserAddress) view public returns(uint)\n    {\n        return Stumap[UserAddress].length;\n    }\n\n    \n\n    \n\n\n    function AddRequest(address UserAddress,string memory stuname,uint bonafide,uint scholor,uint academics,uint status) public\n    {\n        RequestMap[UserAddress].push(Request(stuname,bonafide,scholor,academics,status));\n    }\n    \n    function ViewRequestLength(address UserAddress) view public returns(uint)\n    {\n        return RequestMap[UserAddress].length;\n    }\n    \n    function ViewRequestHeader(address UserAddress, uint RequestIndex) view public returns(string memory stuname, uint status)\n    {\n        Request memory ThisRequest=RequestMap[UserAddress][RequestIndex];\n        return (ThisRequest.stuname, ThisRequest.status);\n    }\n\n    function ViewRequestDetail(address UserAddress, uint RequestIndex) view public returns(string memory stuname,uint bonafide,uint scholor,uint academics,uint status)\n    {\n        Request memory ThisRequest=RequestMap[UserAddress][RequestIndex];\n        return (ThisRequest.stuname, ThisRequest.bonafide, ThisRequest.scholor, ThisRequest.academics,ThisRequest.status);\n    }\n\n    function UpdateRequestStatus(address UserAddress, uint RequestIndex, uint bonafide,uint scholor,uint academics,uint status) public\n    {\n        RequestMap[UserAddress][RequestIndex].bonafide=bonafide;\n        RequestMap[UserAddress][RequestIndex].scholor=scholor;\n        RequestMap[UserAddress][RequestIndex].academics=academics;\n        RequestMap[UserAddress][RequestIndex].status=status;\n    }\n   \n}\n                                        \n",
  "sourcePath": "D:/Decentralised-App-main/src/contracts/Adddoc.sol",
  "compiler": {
    "name": "solc",
    "version": "0.5.16+commit.9c3226ce.Emscripten.clang"
  },
  "schemaVersion": "3.2.4",
  "updatedAt": "2020-11-02T09:01:50.301Z",
  "networkType": "ethereum",
  "devdoc": {
    "methods": {}
  },
  "userdoc": {
    "methods": {}
  }
}